{
  "contractName": "TokenWithdraw",
  "abi": [
    {
      "inputs": [
        {
          "internalType": "address",
          "name": "_token",
          "type": "address"
        }
      ],
      "stateMutability": "nonpayable",
      "type": "constructor"
    },
    {
      "inputs": [],
      "name": "owner",
      "outputs": [
        {
          "internalType": "address",
          "name": "",
          "type": "address"
        }
      ],
      "stateMutability": "view",
      "type": "function"
    },
    {
      "inputs": [],
      "name": "token",
      "outputs": [
        {
          "internalType": "contract IERC20",
          "name": "",
          "type": "address"
        }
      ],
      "stateMutability": "view",
      "type": "function"
    },
    {
      "inputs": [
        {
          "internalType": "uint256",
          "name": "amount",
          "type": "uint256"
        }
      ],
      "name": "withdrawTokens",
      "outputs": [],
      "stateMutability": "nonpayable",
      "type": "function"
    },
    {
      "inputs": [],
      "name": "getBalance",
      "outputs": [
        {
          "internalType": "uint256",
          "name": "",
          "type": "uint256"
        }
      ],
      "stateMutability": "view",
      "type": "function"
    }
  ],
  "bytecode": "0x608060405234801561001057600080fd5b50604051610868380380610868833981810160405281019061003291906100ce565b336000806101000a81548173ffffffffffffffffffffffffffffffffffffffff021916908373ffffffffffffffffffffffffffffffffffffffff16021790555080600160006101000a81548173ffffffffffffffffffffffffffffffffffffffff021916908373ffffffffffffffffffffffffffffffffffffffff16021790555050610140565b6000815190506100c881610129565b92915050565b6000602082840312156100e057600080fd5b60006100ee848285016100b9565b91505092915050565b600061010282610109565b9050919050565b600073ffffffffffffffffffffffffffffffffffffffff82169050919050565b610132816100f7565b811461013d57600080fd5b50565b6107198061014f6000396000f3fe608060405234801561001057600080fd5b506004361061004c5760003560e01c806312065fe014610051578063315a095d1461006f5780638da5cb5b1461008b578063fc0c546a146100a9575b600080fd5b6100596100c7565b604051610066919061061d565b60405180910390f35b6100896004803603810190610084919061047f565b610179565b005b6100936103cd565b6040516100a0919061057e565b60405180910390f35b6100b16103f1565b6040516100be91906105c2565b60405180910390f35b6000600160009054906101000a900473ffffffffffffffffffffffffffffffffffffffff1673ffffffffffffffffffffffffffffffffffffffff166370a08231306040518263ffffffff1660e01b8152600401610124919061057e565b60206040518083038186803b15801561013c57600080fd5b505afa158015610150573d6000803e3d6000fd5b505050506040513d601f19601f8201168201806040525081019061017491906104a8565b905090565b60008054906101000a900473ffffffffffffffffffffffffffffffffffffffff1673ffffffffffffffffffffffffffffffffffffffff163373ffffffffffffffffffffffffffffffffffffffff1614610207576040517f08c379a00000000000000000000000000000000000000000000000000000000081526004016101fe906105dd565b60405180910390fd5b6000600160009054906101000a900473ffffffffffffffffffffffffffffffffffffffff1673ffffffffffffffffffffffffffffffffffffffff166370a08231306040518263ffffffff1660e01b8152600401610264919061057e565b60206040518083038186803b15801561027c57600080fd5b505afa158015610290573d6000803e3d6000fd5b505050506040513d601f19601f820116820180604052508101906102b491906104a8565b9050818110156102f9576040517f08c379a00000000000000000000000000000000000000000000000000000000081526004016102f0906105fd565b60405180910390fd5b600160009054906101000a900473ffffffffffffffffffffffffffffffffffffffff1673ffffffffffffffffffffffffffffffffffffffff1663a9059cbb60008054906101000a900473ffffffffffffffffffffffffffffffffffffffff16846040518363ffffffff1660e01b8152600401610376929190610599565b602060405180830381600087803b15801561039057600080fd5b505af11580156103a4573d6000803e3d6000fd5b505050506040513d601f19601f820116820180604052508101906103c89190610456565b505050565b60008054906101000a900473ffffffffffffffffffffffffffffffffffffffff1681565b600160009054906101000a900473ffffffffffffffffffffffffffffffffffffffff1681565b600081519050610426816106b5565b92915050565b60008135905061043b816106cc565b92915050565b600081519050610450816106cc565b92915050565b60006020828403121561046857600080fd5b600061047684828501610417565b91505092915050565b60006020828403121561049157600080fd5b600061049f8482850161042c565b91505092915050565b6000602082840312156104ba57600080fd5b60006104c884828501610441565b91505092915050565b6104da81610649565b82525050565b6104e981610691565b82525050565b60006104fc601583610638565b91507f596f7520617265206e6f7420746865206f776e657200000000000000000000006000830152602082019050919050565b600061053c602083610638565b91507f496e73756666696369656e742062616c616e636520696e20636f6e74726163746000830152602082019050919050565b61057881610687565b82525050565b600060208201905061059360008301846104d1565b92915050565b60006040820190506105ae60008301856104d1565b6105bb602083018461056f565b9392505050565b60006020820190506105d760008301846104e0565b92915050565b600060208201905081810360008301526105f6816104ef565b9050919050565b600060208201905081810360008301526106168161052f565b9050919050565b6000602082019050610632600083018461056f565b92915050565b600082825260208201905092915050565b600061065482610667565b9050919050565b60008115159050919050565b600073ffffffffffffffffffffffffffffffffffffffff82169050919050565b6000819050919050565b600061069c826106a3565b9050919050565b60006106ae82610667565b9050919050565b6106be8161065b565b81146106c957600080fd5b50565b6106d581610687565b81146106e057600080fd5b5056fea2646970667358221220aef254fb9b73907b763035fd91e69db7670dbb4709fa0b38b2989bca179023cf64736f6c63430008000033",
  "immutableReferences": {},
  "source": "// SPDX-License-Identifier: MIT\r\npragma solidity ^0.8.0;\r\n\r\n//  ERC20 \r\ninterface IERC20 {\r\n    function transfer(address recipient, uint256 amount) external returns (bool);\r\n    function balanceOf(address account) external view returns (uint256);\r\n}\r\n\r\ncontract TokenWithdraw {\r\n    // \r\n    address public owner;\r\n\r\n    // ERC20 \r\n    IERC20 public token;\r\n\r\n    //  ERC20 \r\n    constructor(address _token) {\r\n        owner = msg.sender; // \r\n        token = IERC20(_token); //  ERC20 \r\n    }\r\n\r\n    // \r\n    modifier onlyOwner() {\r\n        require(msg.sender == owner, \"You are not the owner\");\r\n        _;\r\n    }\r\n\r\n    // \r\n    function withdrawTokens(uint256 amount) external onlyOwner {\r\n        uint256 balance = token.balanceOf(address(this)); // \r\n        require(balance >= amount, \"Insufficient balance in contract\");\r\n\r\n        // \r\n        token.transfer(owner, amount);\r\n    }\r\n\r\n    //  ERC20 \r\n    function getBalance() external view returns (uint256) {\r\n        return token.balanceOf(address(this));\r\n    }\r\n}\r\n",
  "sourcePath": "C:\\Users\\jiankunh\\Documents\\\\go\\MyERC20Token\\contracts\\withdrawERC20Token.sol",
  "compiler": {
    "name": "solc",
    "version": "0.8.0+commit.c7dfd78e.Emscripten.clang"
  },
  "schemaVersion": "3.4.16",
  "updatedAt": "2025-01-18T08:35:57.080Z",
  "devdoc": {
    "kind": "dev",
    "methods": {},
    "version": 1
  },
  "userdoc": {
    "kind": "user",
    "methods": {},
    "version": 1
  }
}