{
  "contractName": "WithdrawToken",
  "abi": [
    {
      "inputs": [
        {
          "internalType": "address",
          "name": "_tokenAddress",
          "type": "address"
        }
      ],
      "stateMutability": "nonpayable",
      "type": "constructor"
    },
    {
      "anonymous": false,
      "inputs": [
        {
          "indexed": true,
          "internalType": "address",
          "name": "to",
          "type": "address"
        },
        {
          "indexed": false,
          "internalType": "uint256",
          "name": "amount",
          "type": "uint256"
        }
      ],
      "name": "TokensWithdrawn",
      "type": "event"
    },
    {
      "inputs": [],
      "name": "owner",
      "outputs": [
        {
          "internalType": "address",
          "name": "",
          "type": "address"
        }
      ],
      "stateMutability": "view",
      "type": "function",
      "constant": true
    },
    {
      "inputs": [],
      "name": "token",
      "outputs": [
        {
          "internalType": "contract IERC20",
          "name": "",
          "type": "address"
        }
      ],
      "stateMutability": "view",
      "type": "function",
      "constant": true
    },
    {
      "inputs": [
        {
          "internalType": "address",
          "name": "_to",
          "type": "address"
        },
        {
          "internalType": "uint256",
          "name": "_amount",
          "type": "uint256"
        }
      ],
      "name": "withdrawTokens",
      "outputs": [],
      "stateMutability": "nonpayable",
      "type": "function"
    },
    {
      "inputs": [],
      "name": "balance",
      "outputs": [
        {
          "internalType": "uint256",
          "name": "",
          "type": "uint256"
        }
      ],
      "stateMutability": "view",
      "type": "function",
      "constant": true
    }
  ],
  "bytecode": "0x608060405234801561001057600080fd5b506040516108fc3803806108fc833981810160405281019061003291906100ce565b336000806101000a81548173ffffffffffffffffffffffffffffffffffffffff021916908373ffffffffffffffffffffffffffffffffffffffff16021790555080600160006101000a81548173ffffffffffffffffffffffffffffffffffffffff021916908373ffffffffffffffffffffffffffffffffffffffff16021790555050610140565b6000815190506100c881610129565b92915050565b6000602082840312156100e057600080fd5b60006100ee848285016100b9565b91505092915050565b600061010282610109565b9050919050565b600073ffffffffffffffffffffffffffffffffffffffff82169050919050565b610132816100f7565b811461013d57600080fd5b50565b6107ad8061014f6000396000f3fe608060405234801561001057600080fd5b506004361061004c5760003560e01c806306b091f9146100515780638da5cb5b1461006d578063b69ef8a81461008b578063fc0c546a146100a9575b600080fd5b61006b6004803603810190610066919061049a565b6100c7565b005b61007561034a565b60405161008291906105fb565b60405180910390f35b61009361036e565b6040516100a0919061069a565b60405180910390f35b6100b1610420565b6040516100be919061063f565b60405180910390f35b60008054906101000a900473ffffffffffffffffffffffffffffffffffffffff1673ffffffffffffffffffffffffffffffffffffffff163373ffffffffffffffffffffffffffffffffffffffff1614610155576040517f08c379a000000000000000000000000000000000000000000000000000000000815260040161014c9061065a565b60405180910390fd5b6000600160009054906101000a900473ffffffffffffffffffffffffffffffffffffffff1673ffffffffffffffffffffffffffffffffffffffff166370a08231306040518263ffffffff1660e01b81526004016101b291906105fb565b60206040518083038186803b1580156101ca57600080fd5b505afa1580156101de573d6000803e3d6000fd5b505050506040513d601f19601f8201168201806040525081019061020291906104ff565b905081811015610247576040517f08c379a000000000000000000000000000000000000000000000000000000000815260040161023e9061067a565b60405180910390fd5b600160009054906101000a900473ffffffffffffffffffffffffffffffffffffffff1673ffffffffffffffffffffffffffffffffffffffff1663a9059cbb84846040518363ffffffff1660e01b81526004016102a4929190610616565b602060405180830381600087803b1580156102be57600080fd5b505af11580156102d2573d6000803e3d6000fd5b505050506040513d601f19601f820116820180604052508101906102f691906104d6565b508273ffffffffffffffffffffffffffffffffffffffff167f6352c5382c4a4578e712449ca65e83cdb392d045dfcf1cad9615189db2da244b8360405161033d919061069a565b60405180910390a2505050565b60008054906101000a900473ffffffffffffffffffffffffffffffffffffffff1681565b6000600160009054906101000a900473ffffffffffffffffffffffffffffffffffffffff1673ffffffffffffffffffffffffffffffffffffffff166370a08231306040518263ffffffff1660e01b81526004016103cb91906105fb565b60206040518083038186803b1580156103e357600080fd5b505afa1580156103f7573d6000803e3d6000fd5b505050506040513d601f19601f8201168201806040525081019061041b91906104ff565b905090565b600160009054906101000a900473ffffffffffffffffffffffffffffffffffffffff1681565b60008135905061045581610732565b92915050565b60008151905061046a81610749565b92915050565b60008135905061047f81610760565b92915050565b60008151905061049481610760565b92915050565b600080604083850312156104ad57600080fd5b60006104bb85828601610446565b92505060206104cc85828601610470565b9150509250929050565b6000602082840312156104e857600080fd5b60006104f68482850161045b565b91505092915050565b60006020828403121561051157600080fd5b600061051f84828501610485565b91505092915050565b610531816106c6565b82525050565b6105408161070e565b82525050565b60006105536022836106b5565b91507f4f6e6c7920746865206f776e65722063616e20776974686472617720746f6b6560008301527f6e730000000000000000000000000000000000000000000000000000000000006020830152604082019050919050565b60006105b96014836106b5565b91507f496e73756666696369656e742062616c616e63650000000000000000000000006000830152602082019050919050565b6105f581610704565b82525050565b60006020820190506106106000830184610528565b92915050565b600060408201905061062b6000830185610528565b61063860208301846105ec565b9392505050565b60006020820190506106546000830184610537565b92915050565b6000602082019050818103600083015261067381610546565b9050919050565b60006020820190508181036000830152610693816105ac565b9050919050565b60006020820190506106af60008301846105ec565b92915050565b600082825260208201905092915050565b60006106d1826106e4565b9050919050565b60008115159050919050565b600073ffffffffffffffffffffffffffffffffffffffff82169050919050565b6000819050919050565b600061071982610720565b9050919050565b600061072b826106e4565b9050919050565b61073b816106c6565b811461074657600080fd5b50565b610752816106d8565b811461075d57600080fd5b50565b61076981610704565b811461077457600080fd5b5056fea26469706673582212207091e733674744833b746fb6879b25295d4a6fb77e6fb5e0ce96d52fe0c08c9664736f6c63430008000033",
  "immutableReferences": {},
  "source": "// SPDX-License-Identifier: MIT\r\npragma solidity ^0.8.0;\r\n\r\ninterface IERC20 {\r\n    function transfer(address recipient, uint256 amount) external returns (bool);\r\n    function balanceOf(address account) external view returns (uint256);\r\n}\r\n\r\ncontract WithdrawToken {\r\n    address public owner;\r\n    IERC20 public token;\r\n\r\n    event TokensWithdrawn(address indexed to, uint256 amount);\r\n\r\n    // \r\n    constructor(address _tokenAddress) {\r\n        owner = msg.sender;\r\n        token = IERC20(_tokenAddress);\r\n    }\r\n\r\n    modifier onlyOwner() {\r\n        require(msg.sender == owner, \"Only the owner can withdraw tokens\");\r\n        _;\r\n    }\r\n\r\n    // \r\n    function withdrawTokens(address _to, uint256 _amount) external onlyOwner {\r\n        uint256 contractBalance = token.balanceOf(address(this));\r\n        require(contractBalance >= _amount, \"Insufficient balance\");\r\n        token.transfer(_to, _amount);\r\n        emit TokensWithdrawn(_to, _amount);\r\n    }\r\n\r\n    // \r\n    function balance() external view returns (uint256) {\r\n        return token.balanceOf(address(this));\r\n    }\r\n}\r\n",
  "sourcePath": "C:\\Users\\jiankunh\\Documents\\\\go\\MyERC20Token\\contracts\\withdrawERC20Token.sol",
  "compiler": {
    "name": "solc",
    "version": "0.8.0+commit.c7dfd78e.Emscripten.clang"
  },
  "schemaVersion": "3.4.16",
  "updatedAt": "2025-01-20T02:21:38.640Z",
  "networkType": "ethereum",
  "devdoc": {
    "kind": "dev",
    "methods": {},
    "version": 1
  },
  "userdoc": {
    "kind": "user",
    "methods": {},
    "version": 1
  }
}